{
  "_format": "hh-sol-artifact-1",
  "contractName": "SoftlinkSupplyChain",
  "sourceName": "contracts/SoftlinkSupplyChain.sol",
  "abi": [
    {
      "inputs": [],
      "stateMutability": "nonpayable",
      "type": "constructor"
    },
    {
      "inputs": [
        {
          "internalType": "string",
          "name": "_label",
          "type": "string"
        },
        {
          "internalType": "uint256",
          "name": "_weight",
          "type": "uint256"
        },
        {
          "internalType": "uint256",
          "name": "_height",
          "type": "uint256"
        },
        {
          "internalType": "uint256",
          "name": "_vol",
          "type": "uint256"
        },
        {
          "internalType": "uint256",
          "name": "_len",
          "type": "uint256"
        },
        {
          "internalType": "uint256",
          "name": "_wid",
          "type": "uint256"
        },
        {
          "internalType": "uint256",
          "name": "_qty",
          "type": "uint256"
        },
        {
          "internalType": "uint256",
          "name": "_p_type",
          "type": "uint256"
        },
        {
          "internalType": "bool",
          "name": "_stacking",
          "type": "bool"
        },
        {
          "internalType": "bool",
          "name": "_cold_storage",
          "type": "bool"
        }
      ],
      "name": "addTenderDetails",
      "outputs": [
        {
          "internalType": "bool",
          "name": "_updated",
          "type": "bool"
        }
      ],
      "stateMutability": "nonpayable",
      "type": "function"
    },
    {
      "inputs": [
        {
          "internalType": "uint256",
          "name": "batchId",
          "type": "uint256"
        }
      ],
      "name": "approveByReceiver",
      "outputs": [
        {
          "internalType": "bool",
          "name": "_s",
          "type": "bool"
        }
      ],
      "stateMutability": "payable",
      "type": "function"
    },
    {
      "inputs": [
        {
          "internalType": "uint256",
          "name": "batchId",
          "type": "uint256"
        }
      ],
      "name": "approveBySupplier",
      "outputs": [
        {
          "internalType": "bool",
          "name": "",
          "type": "bool"
        }
      ],
      "stateMutability": "nonpayable",
      "type": "function"
    },
    {
      "inputs": [],
      "name": "getTendersOfCutomer",
      "outputs": [
        {
          "components": [
            {
              "internalType": "address",
              "name": "owner",
              "type": "address"
            },
            {
              "internalType": "address",
              "name": "receiver",
              "type": "address"
            },
            {
              "internalType": "address",
              "name": "supplier",
              "type": "address"
            },
            {
              "internalType": "uint256",
              "name": "batchId",
              "type": "uint256"
            },
            {
              "internalType": "string",
              "name": "pickup",
              "type": "string"
            },
            {
              "internalType": "string",
              "name": "delivery",
              "type": "string"
            },
            {
              "internalType": "bool",
              "name": "completedPayment",
              "type": "bool"
            },
            {
              "internalType": "uint256",
              "name": "tenderBudget",
              "type": "uint256"
            },
            {
              "internalType": "uint256",
              "name": "issuedAt",
              "type": "uint256"
            },
            {
              "internalType": "string",
              "name": "expectedDate",
              "type": "string"
            },
            {
              "internalType": "enum SoftlinkSupplyChain.PackageState",
              "name": "stage",
              "type": "uint8"
            },
            {
              "internalType": "string",
              "name": "label",
              "type": "string"
            },
            {
              "internalType": "uint256",
              "name": "weight",
              "type": "uint256"
            },
            {
              "internalType": "uint256",
              "name": "height",
              "type": "uint256"
            },
            {
              "internalType": "uint256",
              "name": "vol",
              "type": "uint256"
            },
            {
              "internalType": "uint256",
              "name": "len",
              "type": "uint256"
            },
            {
              "internalType": "uint256",
              "name": "wid",
              "type": "uint256"
            },
            {
              "internalType": "uint256",
              "name": "qty",
              "type": "uint256"
            },
            {
              "internalType": "enum SoftlinkSupplyChain.PckgType",
              "name": "p_type",
              "type": "uint8"
            },
            {
              "internalType": "bool",
              "name": "stacking",
              "type": "bool"
            },
            {
              "internalType": "bool",
              "name": "cold_storage",
              "type": "bool"
            }
          ],
          "internalType": "struct SoftlinkSupplyChain.PackagingTender[]",
          "name": "",
          "type": "tuple[]"
        }
      ],
      "stateMutability": "view",
      "type": "function"
    },
    {
      "inputs": [
        {
          "internalType": "address",
          "name": "receiver",
          "type": "address"
        }
      ],
      "name": "getTendersOfReceiver",
      "outputs": [
        {
          "components": [
            {
              "internalType": "address",
              "name": "owner",
              "type": "address"
            },
            {
              "internalType": "address",
              "name": "receiver",
              "type": "address"
            },
            {
              "internalType": "address",
              "name": "supplier",
              "type": "address"
            },
            {
              "internalType": "uint256",
              "name": "batchId",
              "type": "uint256"
            },
            {
              "internalType": "string",
              "name": "pickup",
              "type": "string"
            },
            {
              "internalType": "string",
              "name": "delivery",
              "type": "string"
            },
            {
              "internalType": "bool",
              "name": "completedPayment",
              "type": "bool"
            },
            {
              "internalType": "uint256",
              "name": "tenderBudget",
              "type": "uint256"
            },
            {
              "internalType": "uint256",
              "name": "issuedAt",
              "type": "uint256"
            },
            {
              "internalType": "string",
              "name": "expectedDate",
              "type": "string"
            },
            {
              "internalType": "enum SoftlinkSupplyChain.PackageState",
              "name": "stage",
              "type": "uint8"
            },
            {
              "internalType": "string",
              "name": "label",
              "type": "string"
            },
            {
              "internalType": "uint256",
              "name": "weight",
              "type": "uint256"
            },
            {
              "internalType": "uint256",
              "name": "height",
              "type": "uint256"
            },
            {
              "internalType": "uint256",
              "name": "vol",
              "type": "uint256"
            },
            {
              "internalType": "uint256",
              "name": "len",
              "type": "uint256"
            },
            {
              "internalType": "uint256",
              "name": "wid",
              "type": "uint256"
            },
            {
              "internalType": "uint256",
              "name": "qty",
              "type": "uint256"
            },
            {
              "internalType": "enum SoftlinkSupplyChain.PckgType",
              "name": "p_type",
              "type": "uint8"
            },
            {
              "internalType": "bool",
              "name": "stacking",
              "type": "bool"
            },
            {
              "internalType": "bool",
              "name": "cold_storage",
              "type": "bool"
            }
          ],
          "internalType": "struct SoftlinkSupplyChain.PackagingTender[]",
          "name": "",
          "type": "tuple[]"
        }
      ],
      "stateMutability": "view",
      "type": "function"
    },
    {
      "inputs": [
        {
          "internalType": "address",
          "name": "supplier",
          "type": "address"
        }
      ],
      "name": "getTendersOfSupplier",
      "outputs": [
        {
          "components": [
            {
              "internalType": "address",
              "name": "owner",
              "type": "address"
            },
            {
              "internalType": "address",
              "name": "receiver",
              "type": "address"
            },
            {
              "internalType": "address",
              "name": "supplier",
              "type": "address"
            },
            {
              "internalType": "uint256",
              "name": "batchId",
              "type": "uint256"
            },
            {
              "internalType": "string",
              "name": "pickup",
              "type": "string"
            },
            {
              "internalType": "string",
              "name": "delivery",
              "type": "string"
            },
            {
              "internalType": "bool",
              "name": "completedPayment",
              "type": "bool"
            },
            {
              "internalType": "uint256",
              "name": "tenderBudget",
              "type": "uint256"
            },
            {
              "internalType": "uint256",
              "name": "issuedAt",
              "type": "uint256"
            },
            {
              "internalType": "string",
              "name": "expectedDate",
              "type": "string"
            },
            {
              "internalType": "enum SoftlinkSupplyChain.PackageState",
              "name": "stage",
              "type": "uint8"
            },
            {
              "internalType": "string",
              "name": "label",
              "type": "string"
            },
            {
              "internalType": "uint256",
              "name": "weight",
              "type": "uint256"
            },
            {
              "internalType": "uint256",
              "name": "height",
              "type": "uint256"
            },
            {
              "internalType": "uint256",
              "name": "vol",
              "type": "uint256"
            },
            {
              "internalType": "uint256",
              "name": "len",
              "type": "uint256"
            },
            {
              "internalType": "uint256",
              "name": "wid",
              "type": "uint256"
            },
            {
              "internalType": "uint256",
              "name": "qty",
              "type": "uint256"
            },
            {
              "internalType": "enum SoftlinkSupplyChain.PckgType",
              "name": "p_type",
              "type": "uint8"
            },
            {
              "internalType": "bool",
              "name": "stacking",
              "type": "bool"
            },
            {
              "internalType": "bool",
              "name": "cold_storage",
              "type": "bool"
            }
          ],
          "internalType": "struct SoftlinkSupplyChain.PackagingTender[]",
          "name": "",
          "type": "tuple[]"
        }
      ],
      "stateMutability": "view",
      "type": "function"
    },
    {
      "inputs": [
        {
          "internalType": "address",
          "name": "_receiver",
          "type": "address"
        },
        {
          "internalType": "address",
          "name": "supplier",
          "type": "address"
        },
        {
          "internalType": "string",
          "name": "_pickup",
          "type": "string"
        },
        {
          "internalType": "string",
          "name": "_delivery",
          "type": "string"
        },
        {
          "internalType": "uint256",
          "name": "_tenderBudget",
          "type": "uint256"
        },
        {
          "internalType": "string",
          "name": "_expectedDate",
          "type": "string"
        }
      ],
      "name": "registerTender",
      "outputs": [
        {
          "internalType": "bool",
          "name": "_success",
          "type": "bool"
        }
      ],
      "stateMutability": "payable",
      "type": "function"
    },
    {
      "stateMutability": "payable",
      "type": "receive"
    }
  ],
  "bytecode": "0x608060405234801561001057600080fd5b50612a4d806100206000396000f3fe6080604052600436106100745760003560e01c80638750fbca1161004e5780638750fbca1461010b578063959b289c14610148578063dab72c0c14610185578063dcb79c9d146101c25761007b565b80636bb20d7f14610080578063703a4bcb146100b057806376fc0099146100db5761007b565b3661007b57005b600080fd5b61009a60048036038101906100959190611d37565b6101ff565b6040516100a79190611d7f565b60405180910390f35b3480156100bc57600080fd5b506100c5610372565b6040516100d291906121e0565b60405180910390f35b6100f560048036038101906100f09190612363565b610952565b6040516101029190611d7f565b60405180910390f35b34801561011757600080fd5b50610132600480360381019061012d9190612470565b610ec0565b60405161013f9190611d7f565b60405180910390f35b34801561015457600080fd5b5061016f600480360381019061016a9190611d37565b610fc8565b60405161017c9190611d7f565b60405180910390f35b34801561019157600080fd5b506101ac60048036038101906101a7919061256b565b61101d565b6040516101b991906121e0565b60405180910390f35b3480156101ce57600080fd5b506101e960048036038101906101e4919061256b565b6115ff565b6040516101f691906121e0565b60405180910390f35b600080828154811061021457610213612598565b5b906000526020600020906013020160020160009054906101000a900473ffffffffffffffffffffffffffffffffffffffff1673ffffffffffffffffffffffffffffffffffffffff166108fc6000848154811061027357610272612598565b5b9060005260206000209060130201600701549081150290604051600060405180830381858888f193505050509050806102e1576040517f08c379a00000000000000000000000000000000000000000000000000000000081526004016102d890612624565b60405180910390fd5b6002600083815481106102f7576102f6612598565b5b9060005260206000209060130201600a0160006101000a81548160ff0219169083600281111561032a57610329611eb5565b5b021790555060016000838154811061034557610344612598565b5b906000526020600020906013020160060160006101000a81548160ff021916908315150217905550919050565b60606000600260003373ffffffffffffffffffffffffffffffffffffffff1673ffffffffffffffffffffffffffffffffffffffff1681526020019081526020016000208054806020026020016040519081016040528092919081815260200182805480156103ff57602002820191906000526020600020905b8154815260200190600101908083116103eb575b505050505090506000815167ffffffffffffffff81111561042357610422612238565b5b60405190808252806020026020018201604052801561045c57816020015b610449611be1565b8152602001906001900390816104415790505b50905060005b82518110156109495760008382815181106104805761047f612598565b5b60200260200101518154811061049957610498612598565b5b9060005260206000209060130201604051806102a00160405290816000820160009054906101000a900473ffffffffffffffffffffffffffffffffffffffff1673ffffffffffffffffffffffffffffffffffffffff1673ffffffffffffffffffffffffffffffffffffffff1681526020016001820160009054906101000a900473ffffffffffffffffffffffffffffffffffffffff1673ffffffffffffffffffffffffffffffffffffffff1673ffffffffffffffffffffffffffffffffffffffff1681526020016002820160009054906101000a900473ffffffffffffffffffffffffffffffffffffffff1673ffffffffffffffffffffffffffffffffffffffff1673ffffffffffffffffffffffffffffffffffffffff168152602001600382015481526020016004820180546105cf90612673565b80601f01602080910402602001604051908101604052809291908181526020018280546105fb90612673565b80156106485780601f1061061d57610100808354040283529160200191610648565b820191906000526020600020905b81548152906001019060200180831161062b57829003601f168201915b5050505050815260200160058201805461066190612673565b80601f016020809104026020016040519081016040528092919081815260200182805461068d90612673565b80156106da5780601f106106af576101008083540402835291602001916106da565b820191906000526020600020905b8154815290600101906020018083116106bd57829003601f168201915b505050505081526020016006820160009054906101000a900460ff16151515158152602001600782015481526020016008820154815260200160098201805461072290612673565b80601f016020809104026020016040519081016040528092919081815260200182805461074e90612673565b801561079b5780601f106107705761010080835404028352916020019161079b565b820191906000526020600020905b81548152906001019060200180831161077e57829003601f168201915b50505050508152602001600a820160009054906101000a900460ff1660028111156107c9576107c8611eb5565b5b60028111156107db576107da611eb5565b5b8152602001600b820180546107ef90612673565b80601f016020809104026020016040519081016040528092919081815260200182805461081b90612673565b80156108685780601f1061083d57610100808354040283529160200191610868565b820191906000526020600020905b81548152906001019060200180831161084b57829003601f168201915b50505050508152602001600c8201548152602001600d8201548152602001600e8201548152602001600f820154815260200160108201548152602001601182015481526020016012820160009054906101000a900460ff1660018111156108d2576108d1611eb5565b5b60018111156108e4576108e3611eb5565b5b81526020016012820160019054906101000a900460ff161515151581526020016012820160029054906101000a900460ff16151515158152505082828151811061093157610930612598565b5b60200260200101819052508080600101915050610462565b50809250505090565b600082341015610997576040517f08c379a000000000000000000000000000000000000000000000000000000000815260040161098e90612716565b60405180910390fd5b61099f611be1565b33816000019073ffffffffffffffffffffffffffffffffffffffff16908173ffffffffffffffffffffffffffffffffffffffff168152505087816020019073ffffffffffffffffffffffffffffffffffffffff16908173ffffffffffffffffffffffffffffffffffffffff168152505086816040019073ffffffffffffffffffffffffffffffffffffffff16908173ffffffffffffffffffffffffffffffffffffffff1681525050600080549050816060018181525050858160800181905250848160a0018190525060008160c0019015159081151581525050838160e001818152505042816101000181815250508281610120018190525060008161014001906002811115610ab257610ab1611eb5565b5b90816002811115610ac657610ac5611eb5565b5b81525050600081908060018154018082558091505060019003906000526020600020906013020160009091909190915060008201518160000160006101000a81548173ffffffffffffffffffffffffffffffffffffffff021916908373ffffffffffffffffffffffffffffffffffffffff16021790555060208201518160010160006101000a81548173ffffffffffffffffffffffffffffffffffffffff021916908373ffffffffffffffffffffffffffffffffffffffff16021790555060408201518160020160006101000a81548173ffffffffffffffffffffffffffffffffffffffff021916908373ffffffffffffffffffffffffffffffffffffffff160217905550606082015181600301556080820151816004019081610bea91906128e2565b5060a0820151816005019081610c0091906128e2565b5060c08201518160060160006101000a81548160ff02191690831515021790555060e082015181600701556101008201518160080155610120820151816009019081610c4c91906128e2565b5061014082015181600a0160006101000a81548160ff02191690836002811115610c7957610c78611eb5565b5b021790555061016082015181600b019081610c9491906128e2565b5061018082015181600c01556101a082015181600d01556101c082015181600e01556101e082015181600f0155610200820151816010015561022082015181601101556102408201518160120160006101000a81548160ff02191690836001811115610d0357610d02611eb5565b5b02179055506102608201518160120160016101000a81548160ff0219169083151502179055506102808201518160120160026101000a81548160ff0219169083151502179055505050600260008873ffffffffffffffffffffffffffffffffffffffff1673ffffffffffffffffffffffffffffffffffffffff1681526020019081526020016000206001600080549050610d9d91906129e3565b9080600181540180825580915050600190039060005260206000200160009091909190915055600160003373ffffffffffffffffffffffffffffffffffffffff1673ffffffffffffffffffffffffffffffffffffffff1681526020019081526020016000206001600080549050610e1491906129e3565b9080600181540180825580915050600190039060005260206000200160009091909190915055600360008973ffffffffffffffffffffffffffffffffffffffff1673ffffffffffffffffffffffffffffffffffffffff1681526020019081526020016000206001600080549050610e8b91906129e3565b908060018154018082558091505060019003906000526020600020016000909190919091505560019150509695505050505050565b60008060006001600080549050610ed791906129e3565b81548110610ee857610ee7612598565b5b906000526020600020906013020190508b81600b019081610f0991906128e2565b508a81600c01819055508981600d01819055508881600e01819055508781600f018190555086816010018190555085816011018190555060008514610f4f576000610f52565b60015b8160120160006101000a81548160ff02191690836001811115610f7857610f77611eb5565b5b0217905550838160120160016101000a81548160ff021916908315150217905550828160120160026101000a81548160ff02191690831515021790555060019150509a9950505050505050505050565b6000600160008381548110610fe057610fdf612598565b5b9060005260206000209060130201600a0160006101000a81548160ff0219169083600281111561101357611012611eb5565b5b0217905550919050565b60606000600360008473ffffffffffffffffffffffffffffffffffffffff1673ffffffffffffffffffffffffffffffffffffffff1681526020019081526020016000208054806020026020016040519081016040528092919081815260200182805480156110aa57602002820191906000526020600020905b815481526020019060010190808311611096575b505050505090506000815167ffffffffffffffff8111156110ce576110cd612238565b5b60405190808252806020026020018201604052801561110757816020015b6110f4611be1565b8152602001906001900390816110ec5790505b50905060005b82518110156115f457600083828151811061112b5761112a612598565b5b60200260200101518154811061114457611143612598565b5b9060005260206000209060130201604051806102a00160405290816000820160009054906101000a900473ffffffffffffffffffffffffffffffffffffffff1673ffffffffffffffffffffffffffffffffffffffff1673ffffffffffffffffffffffffffffffffffffffff1681526020016001820160009054906101000a900473ffffffffffffffffffffffffffffffffffffffff1673ffffffffffffffffffffffffffffffffffffffff1673ffffffffffffffffffffffffffffffffffffffff1681526020016002820160009054906101000a900473ffffffffffffffffffffffffffffffffffffffff1673ffffffffffffffffffffffffffffffffffffffff1673ffffffffffffffffffffffffffffffffffffffff1681526020016003820154815260200160048201805461127a90612673565b80601f01602080910402602001604051908101604052809291908181526020018280546112a690612673565b80156112f35780601f106112c8576101008083540402835291602001916112f3565b820191906000526020600020905b8154815290600101906020018083116112d657829003601f168201915b5050505050815260200160058201805461130c90612673565b80601f016020809104026020016040519081016040528092919081815260200182805461133890612673565b80156113855780601f1061135a57610100808354040283529160200191611385565b820191906000526020600020905b81548152906001019060200180831161136857829003601f168201915b505050505081526020016006820160009054906101000a900460ff1615151515815260200160078201548152602001600882015481526020016009820180546113cd90612673565b80601f01602080910402602001604051908101604052809291908181526020018280546113f990612673565b80156114465780601f1061141b57610100808354040283529160200191611446565b820191906000526020600020905b81548152906001019060200180831161142957829003601f168201915b50505050508152602001600a820160009054906101000a900460ff16600281111561147457611473611eb5565b5b600281111561148657611485611eb5565b5b8152602001600b8201805461149a90612673565b80601f01602080910402602001604051908101604052809291908181526020018280546114c690612673565b80156115135780601f106114e857610100808354040283529160200191611513565b820191906000526020600020905b8154815290600101906020018083116114f657829003601f168201915b50505050508152602001600c8201548152602001600d8201548152602001600e8201548152602001600f820154815260200160108201548152602001601182015481526020016012820160009054906101000a900460ff16600181111561157d5761157c611eb5565b5b600181111561158f5761158e611eb5565b5b81526020016012820160019054906101000a900460ff161515151581526020016012820160029054906101000a900460ff1615151515815250508282815181106115dc576115db612598565b5b6020026020010181905250808060010191505061110d565b508092505050919050565b60606000600260008473ffffffffffffffffffffffffffffffffffffffff1673ffffffffffffffffffffffffffffffffffffffff16815260200190815260200160002080548060200260200160405190810160405280929190818152602001828054801561168c57602002820191906000526020600020905b815481526020019060010190808311611678575b505050505090506000815167ffffffffffffffff8111156116b0576116af612238565b5b6040519080825280602002602001820160405280156116e957816020015b6116d6611be1565b8152602001906001900390816116ce5790505b50905060005b8251811015611bd657600083828151811061170d5761170c612598565b5b60200260200101518154811061172657611725612598565b5b9060005260206000209060130201604051806102a00160405290816000820160009054906101000a900473ffffffffffffffffffffffffffffffffffffffff1673ffffffffffffffffffffffffffffffffffffffff1673ffffffffffffffffffffffffffffffffffffffff1681526020016001820160009054906101000a900473ffffffffffffffffffffffffffffffffffffffff1673ffffffffffffffffffffffffffffffffffffffff1673ffffffffffffffffffffffffffffffffffffffff1681526020016002820160009054906101000a900473ffffffffffffffffffffffffffffffffffffffff1673ffffffffffffffffffffffffffffffffffffffff1673ffffffffffffffffffffffffffffffffffffffff1681526020016003820154815260200160048201805461185c90612673565b80601f016020809104026020016040519081016040528092919081815260200182805461188890612673565b80156118d55780601f106118aa576101008083540402835291602001916118d5565b820191906000526020600020905b8154815290600101906020018083116118b857829003601f168201915b505050505081526020016005820180546118ee90612673565b80601f016020809104026020016040519081016040528092919081815260200182805461191a90612673565b80156119675780601f1061193c57610100808354040283529160200191611967565b820191906000526020600020905b81548152906001019060200180831161194a57829003601f168201915b505050505081526020016006820160009054906101000a900460ff1615151515815260200160078201548152602001600882015481526020016009820180546119af90612673565b80601f01602080910402602001604051908101604052809291908181526020018280546119db90612673565b8015611a285780601f106119fd57610100808354040283529160200191611a28565b820191906000526020600020905b815481529060010190602001808311611a0b57829003601f168201915b50505050508152602001600a820160009054906101000a900460ff166002811115611a5657611a55611eb5565b5b6002811115611a6857611a67611eb5565b5b8152602001600b82018054611a7c90612673565b80601f0160208091040260200160405190810160405280929190818152602001828054611aa890612673565b8015611af55780601f10611aca57610100808354040283529160200191611af5565b820191906000526020600020905b815481529060010190602001808311611ad857829003601f168201915b50505050508152602001600c8201548152602001600d8201548152602001600e8201548152602001600f820154815260200160108201548152602001601182015481526020016012820160009054906101000a900460ff166001811115611b5f57611b5e611eb5565b5b6001811115611b7157611b70611eb5565b5b81526020016012820160019054906101000a900460ff161515151581526020016012820160029054906101000a900460ff161515151581525050828281518110611bbe57611bbd612598565b5b602002602001018190525080806001019150506116ef565b508092505050919050565b604051806102a00160405280600073ffffffffffffffffffffffffffffffffffffffff168152602001600073ffffffffffffffffffffffffffffffffffffffff168152602001600073ffffffffffffffffffffffffffffffffffffffff16815260200160008152602001606081526020016060815260200160001515815260200160008152602001600081526020016060815260200160006002811115611c8b57611c8a611eb5565b5b81526020016060815260200160008152602001600081526020016000815260200160008152602001600081526020016000815260200160006001811115611cd557611cd4611eb5565b5b81526020016000151581526020016000151581525090565b6000604051905090565b600080fd5b600080fd5b6000819050919050565b611d1481611d01565b8114611d1f57600080fd5b50565b600081359050611d3181611d0b565b92915050565b600060208284031215611d4d57611d4c611cf7565b5b6000611d5b84828501611d22565b91505092915050565b60008115159050919050565b611d7981611d64565b82525050565b6000602082019050611d946000830184611d70565b92915050565b600081519050919050565b600082825260208201905092915050565b6000819050602082019050919050565b600073ffffffffffffffffffffffffffffffffffffffff82169050919050565b6000611df182611dc6565b9050919050565b611e0181611de6565b82525050565b611e1081611d01565b82525050565b600081519050919050565b600082825260208201905092915050565b60005b83811015611e50578082015181840152602081019050611e35565b60008484015250505050565b6000601f19601f8301169050919050565b6000611e7882611e16565b611e828185611e21565b9350611e92818560208601611e32565b611e9b81611e5c565b840191505092915050565b611eaf81611d64565b82525050565b7f4e487b7100000000000000000000000000000000000000000000000000000000600052602160045260246000fd5b60038110611ef557611ef4611eb5565b5b50565b6000819050611f0682611ee4565b919050565b6000611f1682611ef8565b9050919050565b611f2681611f0b565b82525050565b60028110611f3d57611f3c611eb5565b5b50565b6000819050611f4e82611f2c565b919050565b6000611f5e82611f40565b9050919050565b611f6e81611f53565b82525050565b60006102a083016000830151611f8d6000860182611df8565b506020830151611fa06020860182611df8565b506040830151611fb36040860182611df8565b506060830151611fc66060860182611e07565b5060808301518482036080860152611fde8282611e6d565b91505060a083015184820360a0860152611ff88282611e6d565b91505060c083015161200d60c0860182611ea6565b5060e083015161202060e0860182611e07565b50610100830151612035610100860182611e07565b5061012083015184820361012086015261204f8282611e6d565b915050610140830151612066610140860182611f1d565b506101608301518482036101608601526120808282611e6d565b915050610180830151612097610180860182611e07565b506101a08301516120ac6101a0860182611e07565b506101c08301516120c16101c0860182611e07565b506101e08301516120d66101e0860182611e07565b506102008301516120eb610200860182611e07565b50610220830151612100610220860182611e07565b50610240830151612115610240860182611f65565b5061026083015161212a610260860182611ea6565b5061028083015161213f610280860182611ea6565b508091505092915050565b60006121568383611f74565b905092915050565b6000602082019050919050565b600061217682611d9a565b6121808185611da5565b93508360208202850161219285611db6565b8060005b858110156121ce57848403895281516121af858261214a565b94506121ba8361215e565b925060208a01995050600181019050612196565b50829750879550505050505092915050565b600060208201905081810360008301526121fa818461216b565b905092915050565b61220b81611de6565b811461221657600080fd5b50565b60008135905061222881612202565b92915050565b600080fd5b600080fd5b7f4e487b7100000000000000000000000000000000000000000000000000000000600052604160045260246000fd5b61227082611e5c565b810181811067ffffffffffffffff8211171561228f5761228e612238565b5b80604052505050565b60006122a2611ced565b90506122ae8282612267565b919050565b600067ffffffffffffffff8211156122ce576122cd612238565b5b6122d782611e5c565b9050602081019050919050565b82818337600083830152505050565b6000612306612301846122b3565b612298565b90508281526020810184848401111561232257612321612233565b5b61232d8482856122e4565b509392505050565b600082601f83011261234a5761234961222e565b5b813561235a8482602086016122f3565b91505092915050565b60008060008060008060c087890312156123805761237f611cf7565b5b600061238e89828a01612219565b965050602061239f89828a01612219565b955050604087013567ffffffffffffffff8111156123c0576123bf611cfc565b5b6123cc89828a01612335565b945050606087013567ffffffffffffffff8111156123ed576123ec611cfc565b5b6123f989828a01612335565b935050608061240a89828a01611d22565b92505060a087013567ffffffffffffffff81111561242b5761242a611cfc565b5b61243789828a01612335565b9150509295509295509295565b61244d81611d64565b811461245857600080fd5b50565b60008135905061246a81612444565b92915050565b6000806000806000806000806000806101408b8d03121561249457612493611cf7565b5b60008b013567ffffffffffffffff8111156124b2576124b1611cfc565b5b6124be8d828e01612335565b9a505060206124cf8d828e01611d22565b99505060406124e08d828e01611d22565b98505060606124f18d828e01611d22565b97505060806125028d828e01611d22565b96505060a06125138d828e01611d22565b95505060c06125248d828e01611d22565b94505060e06125358d828e01611d22565b9350506101006125478d828e0161245b565b9250506101206125598d828e0161245b565b9150509295989b9194979a5092959850565b60006020828403121561258157612580611cf7565b5b600061258f84828501612219565b91505092915050565b7f4e487b7100000000000000000000000000000000000000000000000000000000600052603260045260246000fd5b600082825260208201905092915050565b7f5061796d656e74204661696c6564200000000000000000000000000000000000600082015250565b600061260e600f836125c7565b9150612619826125d8565b602082019050919050565b6000602082019050818103600083015261263d81612601565b9050919050565b7f4e487b7100000000000000000000000000000000000000000000000000000000600052602260045260246000fd5b6000600282049050600182168061268b57607f821691505b60208210810361269e5761269d612644565b5b50919050565b7f53656e64657220646f65736e3b74206861766520656e6f75676820446573706f60008201527f7369742069652c20526571756972656400000000000000000000000000000000602082015250565b60006127006030836125c7565b915061270b826126a4565b604082019050919050565b6000602082019050818103600083015261272f816126f3565b9050919050565b60008190508160005260206000209050919050565b60006020601f8301049050919050565b600082821b905092915050565b6000600883026127987fffffffffffffffffffffffffffffffffffffffffffffffffffffffffffffffff8261275b565b6127a2868361275b565b95508019841693508086168417925050509392505050565b6000819050919050565b60006127df6127da6127d584611d01565b6127ba565b611d01565b9050919050565b6000819050919050565b6127f9836127c4565b61280d612805826127e6565b848454612768565b825550505050565b600090565b612822612815565b61282d8184846127f0565b505050565b5b818110156128515761284660008261281a565b600181019050612833565b5050565b601f8211156128965761286781612736565b6128708461274b565b8101602085101561287f578190505b61289361288b8561274b565b830182612832565b50505b505050565b600082821c905092915050565b60006128b96000198460080261289b565b1980831691505092915050565b60006128d283836128a8565b9150826002028217905092915050565b6128eb82611e16565b67ffffffffffffffff81111561290457612903612238565b5b61290e8254612673565b612919828285612855565b600060209050601f83116001811461294c576000841561293a578287015190505b61294485826128c6565b8655506129ac565b601f19841661295a86612736565b60005b828110156129825784890151825560018201915060208501945060208101905061295d565b8683101561299f578489015161299b601f8916826128a8565b8355505b6001600288020188555050505b505050505050565b7f4e487b7100000000000000000000000000000000000000000000000000000000600052601160045260246000fd5b60006129ee82611d01565b91506129f983611d01565b9250828203905081811115612a1157612a106129b4565b5b9291505056fea2646970667358221220d163cf8a2545023e2cfc5c25aa6dca03f27db17c0653eca3df3ce5aef93d181a64736f6c63430008180033",
  "linkReferences": {},
  "deployedLinkReferences": {}
}