{
  "_format": "hh-sol-artifact-1",
  "contractName": "SoftlinkSupplyChainContract",
  "sourceName": "contracts/SoftlinkSupplyChainContract.sol",
  "abi": [
    {
      "inputs": [],
      "stateMutability": "nonpayable",
      "type": "constructor"
    },
    {
      "anonymous": false,
      "inputs": [
        {
          "indexed": false,
          "internalType": "address",
          "name": "batchId",
          "type": "address"
        }
      ],
      "name": "UpdatedMilestone",
      "type": "event"
    },
    {
      "inputs": [
        {
          "internalType": "address",
          "name": "_batchId",
          "type": "address"
        },
        {
          "internalType": "string",
          "name": "_name",
          "type": "string"
        },
        {
          "internalType": "string",
          "name": "_category",
          "type": "string"
        },
        {
          "internalType": "uint256",
          "name": "_price",
          "type": "uint256"
        },
        {
          "internalType": "uint256",
          "name": "_quantity",
          "type": "uint256"
        }
      ],
      "name": "addProduct",
      "outputs": [
        {
          "internalType": "uint256",
          "name": "_pid",
          "type": "uint256"
        }
      ],
      "stateMutability": "nonpayable",
      "type": "function"
    },
    {
      "inputs": [
        {
          "internalType": "address",
          "name": "_batchId",
          "type": "address"
        }
      ],
      "name": "getTender",
      "outputs": [
        {
          "components": [
            {
              "internalType": "address",
              "name": "owner",
              "type": "address"
            },
            {
              "internalType": "address",
              "name": "receiver",
              "type": "address"
            },
            {
              "internalType": "address",
              "name": "supplier",
              "type": "address"
            },
            {
              "internalType": "address",
              "name": "batchId",
              "type": "address"
            },
            {
              "internalType": "string",
              "name": "pickup",
              "type": "string"
            },
            {
              "internalType": "string",
              "name": "delivery",
              "type": "string"
            },
            {
              "internalType": "bytes32",
              "name": "docsIPFS",
              "type": "bytes32"
            },
            {
              "internalType": "bool",
              "name": "completedPayment",
              "type": "bool"
            },
            {
              "internalType": "uint256",
              "name": "depositBudget",
              "type": "uint256"
            },
            {
              "internalType": "uint256",
              "name": "issuedAt",
              "type": "uint256"
            }
          ],
          "internalType": "struct SoftlinkSupplyChainContract.PackagingTender",
          "name": "_tender",
          "type": "tuple"
        }
      ],
      "stateMutability": "view",
      "type": "function"
    },
    {
      "inputs": [
        {
          "internalType": "address",
          "name": "supplier",
          "type": "address"
        }
      ],
      "name": "getTenderDataOfSupplier",
      "outputs": [
        {
          "components": [
            {
              "internalType": "address",
              "name": "owner",
              "type": "address"
            },
            {
              "internalType": "address",
              "name": "receiver",
              "type": "address"
            },
            {
              "internalType": "address",
              "name": "supplier",
              "type": "address"
            },
            {
              "internalType": "address",
              "name": "batchId",
              "type": "address"
            },
            {
              "internalType": "string",
              "name": "pickup",
              "type": "string"
            },
            {
              "internalType": "string",
              "name": "delivery",
              "type": "string"
            },
            {
              "internalType": "bytes32",
              "name": "docsIPFS",
              "type": "bytes32"
            },
            {
              "internalType": "bool",
              "name": "completedPayment",
              "type": "bool"
            },
            {
              "internalType": "uint256",
              "name": "depositBudget",
              "type": "uint256"
            },
            {
              "internalType": "uint256",
              "name": "issuedAt",
              "type": "uint256"
            }
          ],
          "internalType": "struct SoftlinkSupplyChainContract.PackagingTender[]",
          "name": "",
          "type": "tuple[]"
        }
      ],
      "stateMutability": "view",
      "type": "function"
    },
    {
      "inputs": [],
      "name": "getTendersOfCutomer",
      "outputs": [
        {
          "components": [
            {
              "internalType": "address",
              "name": "owner",
              "type": "address"
            },
            {
              "internalType": "address",
              "name": "receiver",
              "type": "address"
            },
            {
              "internalType": "address",
              "name": "supplier",
              "type": "address"
            },
            {
              "internalType": "address",
              "name": "batchId",
              "type": "address"
            },
            {
              "internalType": "string",
              "name": "pickup",
              "type": "string"
            },
            {
              "internalType": "string",
              "name": "delivery",
              "type": "string"
            },
            {
              "internalType": "bytes32",
              "name": "docsIPFS",
              "type": "bytes32"
            },
            {
              "internalType": "bool",
              "name": "completedPayment",
              "type": "bool"
            },
            {
              "internalType": "uint256",
              "name": "depositBudget",
              "type": "uint256"
            },
            {
              "internalType": "uint256",
              "name": "issuedAt",
              "type": "uint256"
            }
          ],
          "internalType": "struct SoftlinkSupplyChainContract.PackagingTender[]",
          "name": "",
          "type": "tuple[]"
        }
      ],
      "stateMutability": "view",
      "type": "function"
    },
    {
      "inputs": [
        {
          "internalType": "address",
          "name": "_batchId",
          "type": "address"
        }
      ],
      "name": "proceedMilestone",
      "outputs": [
        {
          "internalType": "bool",
          "name": "_s",
          "type": "bool"
        }
      ],
      "stateMutability": "payable",
      "type": "function"
    },
    {
      "inputs": [],
      "name": "registerEmp",
      "outputs": [],
      "stateMutability": "nonpayable",
      "type": "function"
    },
    {
      "inputs": [
        {
          "internalType": "address",
          "name": "_receiver",
          "type": "address"
        },
        {
          "internalType": "address",
          "name": "_cargo_cust",
          "type": "address"
        },
        {
          "internalType": "string",
          "name": "_pickup",
          "type": "string"
        },
        {
          "internalType": "string",
          "name": "_delivery",
          "type": "string"
        },
        {
          "internalType": "bytes32",
          "name": "_docsIPFS",
          "type": "bytes32"
        },
        {
          "internalType": "uint256",
          "name": "_depositBudget",
          "type": "uint256"
        }
      ],
      "name": "registerTender",
      "outputs": [
        {
          "internalType": "bool",
          "name": "_success",
          "type": "bool"
        }
      ],
      "stateMutability": "payable",
      "type": "function"
    }
  ],
  "bytecode": "0x60a060405234801561001057600080fd5b503373ffffffffffffffffffffffffffffffffffffffff1660808173ffffffffffffffffffffffffffffffffffffffff168152505060805161284361006060003960006113b401526128436000f3fe6080604052600436106100705760003560e01c806374040dab1161004e57806374040dab14610100578063984e86ed1461013d578063a0a1eb051461017a578063d0c3e9091461019157610070565b80634097312814610075578063444cace5146100a5578063703a4bcb146100d5575b600080fd5b61008f600480360381019061008a9190611c1b565b6101ce565b60405161009c9190611cfb565b60405180910390f35b6100bf60048036038101906100ba9190611d16565b610615565b6040516100cc9190611cfb565b60405180910390f35b3480156100e157600080fd5b506100ea610967565b6040516100f79190611fa1565b60405180910390f35b34801561010c57600080fd5b5061012760048036038101906101229190611d16565b610d91565b6040516101349190611fa1565b60405180910390f35b34801561014957600080fd5b50610164600480360381019061015f9190611fc3565b611297565b6040516101719190612085565b60405180910390f35b34801561018657600080fd5b5061018f6113b2565b005b34801561019d57600080fd5b506101b860048036038101906101b39190611d16565b6114a5565b6040516101c59190612181565b60405180910390f35b600081341015610213576040517f08c379a000000000000000000000000000000000000000000000000000000000815260040161020a90612200565b60405180910390fd5b60016040518061014001604052808873ffffffffffffffffffffffffffffffffffffffff1681526020018973ffffffffffffffffffffffffffffffffffffffff1681526020013373ffffffffffffffffffffffffffffffffffffffff1681526020014173ffffffffffffffffffffffffffffffffffffffff1681526020018781526020018681526020018581526020016000151581526020018481526020014281525090806001815401808255809150506001900390600052602060002090600a020160009091909190915060008201518160000160006101000a81548173ffffffffffffffffffffffffffffffffffffffff021916908373ffffffffffffffffffffffffffffffffffffffff16021790555060208201518160010160006101000a81548173ffffffffffffffffffffffffffffffffffffffff021916908373ffffffffffffffffffffffffffffffffffffffff16021790555060408201518160020160006101000a81548173ffffffffffffffffffffffffffffffffffffffff021916908373ffffffffffffffffffffffffffffffffffffffff16021790555060608201518160030160006101000a81548173ffffffffffffffffffffffffffffffffffffffff021916908373ffffffffffffffffffffffffffffffffffffffff1602179055506080820151816004019081610410919061242c565b5060a0820151816005019081610426919061242c565b5060c0820151816006015560e08201518160070160006101000a81548160ff02191690831515021790555061010082015181600801556101208201518160090155505081600660008873ffffffffffffffffffffffffffffffffffffffff1673ffffffffffffffffffffffffffffffffffffffff16815260200190815260200160002060008282546104b8919061252d565b925050819055506104d5416004846104d09190612590565b61182e565b506104ec416004846104e79190612590565b61182e565b50610503416004846104fe9190612590565b61182e565b5061051a416004846105159190612590565b61182e565b50600360003373ffffffffffffffffffffffffffffffffffffffff1673ffffffffffffffffffffffffffffffffffffffff1681526020019081526020016000206001808054905061056b91906125c1565b9080600181540180825580915050600190039060005260206000200160009091909190915055600260008773ffffffffffffffffffffffffffffffffffffffff1673ffffffffffffffffffffffffffffffffffffffff168152602001908152602001600020600180805490506105e191906125c1565b9080600181540180825580915050600190039060005260206000200160009091909190915055600190509695505050505050565b6000806000905060005b6000805490508110156106b3573373ffffffffffffffffffffffffffffffffffffffff1660008281548110610657576106566125f5565b5b9060005260206000200160009054906101000a900473ffffffffffffffffffffffffffffffffffffffff1673ffffffffffffffffffffffffffffffffffffffff16036106a657600191506106b3565b808060010191505061061f565b50806106f4576040517f08c379a00000000000000000000000000000000000000000000000000000000081526004016106eb90612696565b60405180910390fd5b6000600460008573ffffffffffffffffffffffffffffffffffffffff1673ffffffffffffffffffffffffffffffffffffffff168152602001908152602001600020905060005b81805490508110156107b0576002600381111561075a576107596126b6565b5b82828154811061076d5761076c6125f5565b5b906000526020600020906002020160010160009054906101000a900460ff16600381111561079e5761079d6126b6565b5b036107b057808060010191505061073a565b60006107bb866114a5565b9050806040015173ffffffffffffffffffffffffffffffffffffffff166108fc8484815481106107ee576107ed6125f5565b5b9060005260206000209060020201600001549081150290604051600060405180830381858888f1935050505094508461085c576040517f08c379a000000000000000000000000000000000000000000000000000000000815260040161085390612731565b60405180910390fd5b82828154811061086f5761086e6125f5565b5b90600052602060002090600202016000015460066000836000015173ffffffffffffffffffffffffffffffffffffffff1673ffffffffffffffffffffffffffffffffffffffff16815260200190815260200160002060008282546108d391906125c1565b9250508190555060028383815481106108ef576108ee6125f5565b5b906000526020600020906002020160010160006101000a81548160ff02191690836003811115610922576109216126b6565b5b02179055507fb799ec3d7777e64b33243390d1468540a56941d3ffda2f8f764492154ce6c0e4866040516109569190612760565b60405180910390a150505050919050565b60606000600360003373ffffffffffffffffffffffffffffffffffffffff1673ffffffffffffffffffffffffffffffffffffffff1681526020019081526020016000208054806020026020016040519081016040528092919081815260200182805480156109f457602002820191906000526020600020905b8154815260200190600101908083116109e0575b505050505090506000815167ffffffffffffffff811115610a1857610a17611a84565b5b604051908082528060200260200182016040528015610a5157816020015b610a3e611947565b815260200190600190039081610a365790505b50905060005b8251811015610d88576001838281518110610a7557610a746125f5565b5b602002602001015181548110610a8e57610a8d6125f5565b5b90600052602060002090600a0201604051806101400160405290816000820160009054906101000a900473ffffffffffffffffffffffffffffffffffffffff1673ffffffffffffffffffffffffffffffffffffffff1673ffffffffffffffffffffffffffffffffffffffff1681526020016001820160009054906101000a900473ffffffffffffffffffffffffffffffffffffffff1673ffffffffffffffffffffffffffffffffffffffff1673ffffffffffffffffffffffffffffffffffffffff1681526020016002820160009054906101000a900473ffffffffffffffffffffffffffffffffffffffff1673ffffffffffffffffffffffffffffffffffffffff1673ffffffffffffffffffffffffffffffffffffffff1681526020016003820160009054906101000a900473ffffffffffffffffffffffffffffffffffffffff1673ffffffffffffffffffffffffffffffffffffffff1673ffffffffffffffffffffffffffffffffffffffff168152602001600482018054610c109061224f565b80601f0160208091040260200160405190810160405280929190818152602001828054610c3c9061224f565b8015610c895780601f10610c5e57610100808354040283529160200191610c89565b820191906000526020600020905b815481529060010190602001808311610c6c57829003601f168201915b50505050508152602001600582018054610ca29061224f565b80601f0160208091040260200160405190810160405280929190818152602001828054610cce9061224f565b8015610d1b5780601f10610cf057610100808354040283529160200191610d1b565b820191906000526020600020905b815481529060010190602001808311610cfe57829003601f168201915b50505050508152602001600682015481526020016007820160009054906101000a900460ff1615151515815260200160088201548152602001600982015481525050828281518110610d7057610d6f6125f5565b5b60200260200101819052508080600101915050610a57565b50809250505090565b60606000805b600080549050811015610e2b573373ffffffffffffffffffffffffffffffffffffffff1660008281548110610dcf57610dce6125f5565b5b9060005260206000200160009054906101000a900473ffffffffffffffffffffffffffffffffffffffff1673ffffffffffffffffffffffffffffffffffffffff1603610e1e5760019150610e2b565b8080600101915050610d97565b5080610e6c576040517f08c379a0000000000000000000000000000000000000000000000000000000008152600401610e6390612696565b60405180910390fd5b6000600360008573ffffffffffffffffffffffffffffffffffffffff1673ffffffffffffffffffffffffffffffffffffffff168152602001908152602001600020805480602002602001604051908101604052809291908181526020018280548015610ef757602002820191906000526020600020905b815481526020019060010190808311610ee3575b505050505090506000815167ffffffffffffffff811115610f1b57610f1a611a84565b5b604051908082528060200260200182016040528015610f5457816020015b610f41611947565b815260200190600190039081610f395790505b50905060005b825181101561128b576001838281518110610f7857610f776125f5565b5b602002602001015181548110610f9157610f906125f5565b5b90600052602060002090600a0201604051806101400160405290816000820160009054906101000a900473ffffffffffffffffffffffffffffffffffffffff1673ffffffffffffffffffffffffffffffffffffffff1673ffffffffffffffffffffffffffffffffffffffff1681526020016001820160009054906101000a900473ffffffffffffffffffffffffffffffffffffffff1673ffffffffffffffffffffffffffffffffffffffff1673ffffffffffffffffffffffffffffffffffffffff1681526020016002820160009054906101000a900473ffffffffffffffffffffffffffffffffffffffff1673ffffffffffffffffffffffffffffffffffffffff1673ffffffffffffffffffffffffffffffffffffffff1681526020016003820160009054906101000a900473ffffffffffffffffffffffffffffffffffffffff1673ffffffffffffffffffffffffffffffffffffffff1673ffffffffffffffffffffffffffffffffffffffff1681526020016004820180546111139061224f565b80601f016020809104026020016040519081016040528092919081815260200182805461113f9061224f565b801561118c5780601f106111615761010080835404028352916020019161118c565b820191906000526020600020905b81548152906001019060200180831161116f57829003601f168201915b505050505081526020016005820180546111a59061224f565b80601f01602080910402602001604051908101604052809291908181526020018280546111d19061224f565b801561121e5780601f106111f35761010080835404028352916020019161121e565b820191906000526020600020905b81548152906001019060200180831161120157829003601f168201915b50505050508152602001600682015481526020016007820160009054906101000a900460ff1615151515815260200160088201548152602001600982015481525050828281518110611273576112726125f5565b5b60200260200101819052508080600101915050610f5a565b50809350505050919050565b6000600560008773ffffffffffffffffffffffffffffffffffffffff1673ffffffffffffffffffffffffffffffffffffffff16815260200190815260200160002060405180608001604052808781526020018681526020018581526020018481525090806001815401808255809150506001900390600052602060002090600402016000909190919091506000820151816000019081611337919061242c565b50602082015181600101908161134d919061242c565b5060408201518160020155606082015181600301555050600560008773ffffffffffffffffffffffffffffffffffffffff1673ffffffffffffffffffffffffffffffffffffffff16815260200190815260200160002080549050905095945050505050565b7f000000000000000000000000000000000000000000000000000000000000000073ffffffffffffffffffffffffffffffffffffffff163373ffffffffffffffffffffffffffffffffffffffff1614611440576040517f08c379a0000000000000000000000000000000000000000000000000000000008152600401611437906127ed565b60405180910390fd5b6000339080600181540180825580915050600190039060005260206000200160009091909190916101000a81548173ffffffffffffffffffffffffffffffffffffffff021916908373ffffffffffffffffffffffffffffffffffffffff160217905550565b6114ad611947565b60005b600180549050811015611828578273ffffffffffffffffffffffffffffffffffffffff16600182815481106114e8576114e76125f5565b5b90600052602060002090600a020160030160009054906101000a900473ffffffffffffffffffffffffffffffffffffffff1673ffffffffffffffffffffffffffffffffffffffff160361181b5760018181548110611549576115486125f5565b5b90600052602060002090600a0201604051806101400160405290816000820160009054906101000a900473ffffffffffffffffffffffffffffffffffffffff1673ffffffffffffffffffffffffffffffffffffffff1673ffffffffffffffffffffffffffffffffffffffff1681526020016001820160009054906101000a900473ffffffffffffffffffffffffffffffffffffffff1673ffffffffffffffffffffffffffffffffffffffff1673ffffffffffffffffffffffffffffffffffffffff1681526020016002820160009054906101000a900473ffffffffffffffffffffffffffffffffffffffff1673ffffffffffffffffffffffffffffffffffffffff1673ffffffffffffffffffffffffffffffffffffffff1681526020016003820160009054906101000a900473ffffffffffffffffffffffffffffffffffffffff1673ffffffffffffffffffffffffffffffffffffffff1673ffffffffffffffffffffffffffffffffffffffff1681526020016004820180546116cb9061224f565b80601f01602080910402602001604051908101604052809291908181526020018280546116f79061224f565b80156117445780601f1061171957610100808354040283529160200191611744565b820191906000526020600020905b81548152906001019060200180831161172757829003601f168201915b5050505050815260200160058201805461175d9061224f565b80601f01602080910402602001604051908101604052809291908181526020018280546117899061224f565b80156117d65780601f106117ab576101008083540402835291602001916117d6565b820191906000526020600020905b8154815290600101906020018083116117b957829003601f168201915b50505050508152602001600682015481526020016007820160009054906101000a900460ff161515151581526020016008820154815260200160098201548152505091505b80806001019150506114b0565b50919050565b6000600460008473ffffffffffffffffffffffffffffffffffffffff1673ffffffffffffffffffffffffffffffffffffffff168152602001908152602001600020604051806040016040528084815260200160006003811115611894576118936126b6565b5b81525090806001815401808255809150506001900390600052602060002090600202016000909190919091506000820151816000015560208201518160010160006101000a81548160ff021916908360038111156118f5576118f46126b6565b5b02179055505050600460008473ffffffffffffffffffffffffffffffffffffffff1673ffffffffffffffffffffffffffffffffffffffff16815260200190815260200160002080549050905092915050565b604051806101400160405280600073ffffffffffffffffffffffffffffffffffffffff168152602001600073ffffffffffffffffffffffffffffffffffffffff168152602001600073ffffffffffffffffffffffffffffffffffffffff168152602001600073ffffffffffffffffffffffffffffffffffffffff16815260200160608152602001606081526020016000801916815260200160001515815260200160008152602001600081525090565b6000604051905090565b600080fd5b600080fd5b600073ffffffffffffffffffffffffffffffffffffffff82169050919050565b6000611a3682611a0b565b9050919050565b611a4681611a2b565b8114611a5157600080fd5b50565b600081359050611a6381611a3d565b92915050565b600080fd5b600080fd5b6000601f19601f8301169050919050565b7f4e487b7100000000000000000000000000000000000000000000000000000000600052604160045260246000fd5b611abc82611a73565b810181811067ffffffffffffffff82111715611adb57611ada611a84565b5b80604052505050565b6000611aee6119f7565b9050611afa8282611ab3565b919050565b600067ffffffffffffffff821115611b1a57611b19611a84565b5b611b2382611a73565b9050602081019050919050565b82818337600083830152505050565b6000611b52611b4d84611aff565b611ae4565b905082815260208101848484011115611b6e57611b6d611a6e565b5b611b79848285611b30565b509392505050565b600082601f830112611b9657611b95611a69565b5b8135611ba6848260208601611b3f565b91505092915050565b6000819050919050565b611bc281611baf565b8114611bcd57600080fd5b50565b600081359050611bdf81611bb9565b92915050565b6000819050919050565b611bf881611be5565b8114611c0357600080fd5b50565b600081359050611c1581611bef565b92915050565b60008060008060008060c08789031215611c3857611c37611a01565b5b6000611c4689828a01611a54565b9650506020611c5789828a01611a54565b955050604087013567ffffffffffffffff811115611c7857611c77611a06565b5b611c8489828a01611b81565b945050606087013567ffffffffffffffff811115611ca557611ca4611a06565b5b611cb189828a01611b81565b9350506080611cc289828a01611bd0565b92505060a0611cd389828a01611c06565b9150509295509295509295565b60008115159050919050565b611cf581611ce0565b82525050565b6000602082019050611d106000830184611cec565b92915050565b600060208284031215611d2c57611d2b611a01565b5b6000611d3a84828501611a54565b91505092915050565b600081519050919050565b600082825260208201905092915050565b6000819050602082019050919050565b611d7881611a2b565b82525050565b600081519050919050565b600082825260208201905092915050565b60005b83811015611db8578082015181840152602081019050611d9d565b60008484015250505050565b6000611dcf82611d7e565b611dd98185611d89565b9350611de9818560208601611d9a565b611df281611a73565b840191505092915050565b611e0681611baf565b82525050565b611e1581611ce0565b82525050565b611e2481611be5565b82525050565b600061014083016000830151611e436000860182611d6f565b506020830151611e566020860182611d6f565b506040830151611e696040860182611d6f565b506060830151611e7c6060860182611d6f565b5060808301518482036080860152611e948282611dc4565b91505060a083015184820360a0860152611eae8282611dc4565b91505060c0830151611ec360c0860182611dfd565b5060e0830151611ed660e0860182611e0c565b50610100830151611eeb610100860182611e1b565b50610120830151611f00610120860182611e1b565b508091505092915050565b6000611f178383611e2a565b905092915050565b6000602082019050919050565b6000611f3782611d43565b611f418185611d4e565b935083602082028501611f5385611d5f565b8060005b85811015611f8f5784840389528151611f708582611f0b565b9450611f7b83611f1f565b925060208a01995050600181019050611f57565b50829750879550505050505092915050565b60006020820190508181036000830152611fbb8184611f2c565b905092915050565b600080600080600060a08688031215611fdf57611fde611a01565b5b6000611fed88828901611a54565b955050602086013567ffffffffffffffff81111561200e5761200d611a06565b5b61201a88828901611b81565b945050604086013567ffffffffffffffff81111561203b5761203a611a06565b5b61204788828901611b81565b935050606061205888828901611c06565b925050608061206988828901611c06565b9150509295509295909350565b61207f81611be5565b82525050565b600060208201905061209a6000830184612076565b92915050565b6000610140830160008301516120b96000860182611d6f565b5060208301516120cc6020860182611d6f565b5060408301516120df6040860182611d6f565b5060608301516120f26060860182611d6f565b506080830151848203608086015261210a8282611dc4565b91505060a083015184820360a08601526121248282611dc4565b91505060c083015161213960c0860182611dfd565b5060e083015161214c60e0860182611e0c565b50610100830151612161610100860182611e1b565b50610120830151612176610120860182611e1b565b508091505092915050565b6000602082019050818103600083015261219b81846120a0565b905092915050565b600082825260208201905092915050565b7f446573706f736974206973205265717569726564000000000000000000000000600082015250565b60006121ea6014836121a3565b91506121f5826121b4565b602082019050919050565b60006020820190508181036000830152612219816121dd565b9050919050565b7f4e487b7100000000000000000000000000000000000000000000000000000000600052602260045260246000fd5b6000600282049050600182168061226757607f821691505b60208210810361227a57612279612220565b5b50919050565b60008190508160005260206000209050919050565b60006020601f8301049050919050565b600082821b905092915050565b6000600883026122e27fffffffffffffffffffffffffffffffffffffffffffffffffffffffffffffffff826122a5565b6122ec86836122a5565b95508019841693508086168417925050509392505050565b6000819050919050565b600061232961232461231f84611be5565b612304565b611be5565b9050919050565b6000819050919050565b6123438361230e565b61235761234f82612330565b8484546122b2565b825550505050565b600090565b61236c61235f565b61237781848461233a565b505050565b5b8181101561239b57612390600082612364565b60018101905061237d565b5050565b601f8211156123e0576123b181612280565b6123ba84612295565b810160208510156123c9578190505b6123dd6123d585612295565b83018261237c565b50505b505050565b600082821c905092915050565b6000612403600019846008026123e5565b1980831691505092915050565b600061241c83836123f2565b9150826002028217905092915050565b61243582611d7e565b67ffffffffffffffff81111561244e5761244d611a84565b5b612458825461224f565b61246382828561239f565b600060209050601f8311600181146124965760008415612484578287015190505b61248e8582612410565b8655506124f6565b601f1984166124a486612280565b60005b828110156124cc578489015182556001820191506020850194506020810190506124a7565b868310156124e957848901516124e5601f8916826123f2565b8355505b6001600288020188555050505b505050505050565b7f4e487b7100000000000000000000000000000000000000000000000000000000600052601160045260246000fd5b600061253882611be5565b915061254383611be5565b925082820190508082111561255b5761255a6124fe565b5b92915050565b7f4e487b7100000000000000000000000000000000000000000000000000000000600052601260045260246000fd5b600061259b82611be5565b91506125a683611be5565b9250826125b6576125b5612561565b5b828204905092915050565b60006125cc82611be5565b91506125d783611be5565b92508282039050818111156125ef576125ee6124fe565b5b92915050565b7f4e487b7100000000000000000000000000000000000000000000000000000000600052603260045260246000fd5b7f4f6e6c7920456d706c6f796565732061726520616c6c6f77656420746f20757060008201527f6461746520000000000000000000000000000000000000000000000000000000602082015250565b60006126806025836121a3565b915061268b82612624565b604082019050919050565b600060208201905081810360008301526126af81612673565b9050919050565b7f4e487b7100000000000000000000000000000000000000000000000000000000600052602160045260246000fd5b7f5061796d656e74204661696c6564200000000000000000000000000000000000600082015250565b600061271b600f836121a3565b9150612726826126e5565b602082019050919050565b6000602082019050818103600083015261274a8161270e565b9050919050565b61275a81611a2b565b82525050565b60006020820190506127756000830184612751565b92915050565b7f6f6e6c79206f776e65722063616e20726567697374657220656d706c6f79656560008201527f7300000000000000000000000000000000000000000000000000000000000000602082015250565b60006127d76021836121a3565b91506127e28261277b565b604082019050919050565b60006020820190508181036000830152612806816127ca565b905091905056fea26469706673582212204a848d4070406148795de69d8b4ce38a36388b657637034b8bc9a3ee62b4b2b664736f6c63430008180033",
  "linkReferences": {},
  "deployedLinkReferences": {}
}